{
  "_format": "hh-sol-artifact-1",
  "contractName": "Decentratwitter",
  "sourceName": "contracts/Decentratwitter.sol",
  "abi": [
    {
      "inputs": [],
      "stateMutability": "nonpayable",
      "type": "constructor"
    },
    {
      "anonymous": false,
      "inputs": [
        {
          "indexed": true,
          "internalType": "address",
          "name": "owner",
          "type": "address"
        },
        {
          "indexed": true,
          "internalType": "address",
          "name": "approved",
          "type": "address"
        },
        {
          "indexed": true,
          "internalType": "uint256",
          "name": "tokenId",
          "type": "uint256"
        }
      ],
      "name": "Approval",
      "type": "event"
    },
    {
      "anonymous": false,
      "inputs": [
        {
          "indexed": true,
          "internalType": "address",
          "name": "owner",
          "type": "address"
        },
        {
          "indexed": true,
          "internalType": "address",
          "name": "operator",
          "type": "address"
        },
        {
          "indexed": false,
          "internalType": "bool",
          "name": "approved",
          "type": "bool"
        }
      ],
      "name": "ApprovalForAll",
      "type": "event"
    },
    {
      "anonymous": false,
      "inputs": [
        {
          "indexed": false,
          "internalType": "uint256",
          "name": "id",
          "type": "uint256"
        },
        {
          "indexed": false,
          "internalType": "string",
          "name": "hash",
          "type": "string"
        },
        {
          "indexed": false,
          "internalType": "uint256",
          "name": "tipAmount",
          "type": "uint256"
        },
        {
          "indexed": false,
          "internalType": "address payable",
          "name": "author",
          "type": "address"
        }
      ],
      "name": "PostCreated",
      "type": "event"
    },
    {
      "anonymous": false,
      "inputs": [
        {
          "indexed": false,
          "internalType": "uint256",
          "name": "id",
          "type": "uint256"
        },
        {
          "indexed": false,
          "internalType": "string",
          "name": "hash",
          "type": "string"
        },
        {
          "indexed": false,
          "internalType": "uint256",
          "name": "tipAmount",
          "type": "uint256"
        },
        {
          "indexed": false,
          "internalType": "address payable",
          "name": "author",
          "type": "address"
        }
      ],
      "name": "PostTipped",
      "type": "event"
    },
    {
      "anonymous": false,
      "inputs": [
        {
          "indexed": true,
          "internalType": "address",
          "name": "from",
          "type": "address"
        },
        {
          "indexed": true,
          "internalType": "address",
          "name": "to",
          "type": "address"
        },
        {
          "indexed": true,
          "internalType": "uint256",
          "name": "tokenId",
          "type": "uint256"
        }
      ],
      "name": "Transfer",
      "type": "event"
    },
    {
      "inputs": [
        {
          "internalType": "address",
          "name": "to",
          "type": "address"
        },
        {
          "internalType": "uint256",
          "name": "tokenId",
          "type": "uint256"
        }
      ],
      "name": "approve",
      "outputs": [],
      "stateMutability": "nonpayable",
      "type": "function"
    },
    {
      "inputs": [
        {
          "internalType": "address",
          "name": "owner",
          "type": "address"
        }
      ],
      "name": "balanceOf",
      "outputs": [
        {
          "internalType": "uint256",
          "name": "",
          "type": "uint256"
        }
      ],
      "stateMutability": "view",
      "type": "function"
    },
    {
      "inputs": [],
      "name": "getAllPost",
      "outputs": [
        {
          "components": [
            {
              "internalType": "uint256",
              "name": "id",
              "type": "uint256"
            },
            {
              "internalType": "string",
              "name": "hash",
              "type": "string"
            },
            {
              "internalType": "uint256",
              "name": "tipAmount",
              "type": "uint256"
            },
            {
              "internalType": "address payable",
              "name": "author",
              "type": "address"
            }
          ],
          "internalType": "struct Decentratwitter.Post[]",
          "name": "_posts",
          "type": "tuple[]"
        }
      ],
      "stateMutability": "view",
      "type": "function"
    },
    {
      "inputs": [
        {
          "internalType": "uint256",
          "name": "tokenId",
          "type": "uint256"
        }
      ],
      "name": "getApproved",
      "outputs": [
        {
          "internalType": "address",
          "name": "",
          "type": "address"
        }
      ],
      "stateMutability": "view",
      "type": "function"
    },
    {
      "inputs": [],
      "name": "getMyNfts",
      "outputs": [
        {
          "internalType": "uint256[]",
          "name": "_ids",
          "type": "uint256[]"
        }
      ],
      "stateMutability": "view",
      "type": "function"
    },
    {
      "inputs": [
        {
          "internalType": "address",
          "name": "owner",
          "type": "address"
        },
        {
          "internalType": "address",
          "name": "operator",
          "type": "address"
        }
      ],
      "name": "isApprovedForAll",
      "outputs": [
        {
          "internalType": "bool",
          "name": "",
          "type": "bool"
        }
      ],
      "stateMutability": "view",
      "type": "function"
    },
    {
      "inputs": [
        {
          "internalType": "string",
          "name": "_tokenURI",
          "type": "string"
        }
      ],
      "name": "mint",
      "outputs": [
        {
          "internalType": "uint256",
          "name": "",
          "type": "uint256"
        }
      ],
      "stateMutability": "nonpayable",
      "type": "function"
    },
    {
      "inputs": [],
      "name": "name",
      "outputs": [
        {
          "internalType": "string",
          "name": "",
          "type": "string"
        }
      ],
      "stateMutability": "view",
      "type": "function"
    },
    {
      "inputs": [
        {
          "internalType": "uint256",
          "name": "tokenId",
          "type": "uint256"
        }
      ],
      "name": "ownerOf",
      "outputs": [
        {
          "internalType": "address",
          "name": "",
          "type": "address"
        }
      ],
      "stateMutability": "view",
      "type": "function"
    },
    {
      "inputs": [],
      "name": "postCount",
      "outputs": [
        {
          "internalType": "uint256",
          "name": "",
          "type": "uint256"
        }
      ],
      "stateMutability": "view",
      "type": "function"
    },
    {
      "inputs": [
        {
          "internalType": "uint256",
          "name": "",
          "type": "uint256"
        }
      ],
      "name": "posts",
      "outputs": [
        {
          "internalType": "uint256",
          "name": "id",
          "type": "uint256"
        },
        {
          "internalType": "string",
          "name": "hash",
          "type": "string"
        },
        {
          "internalType": "uint256",
          "name": "tipAmount",
          "type": "uint256"
        },
        {
          "internalType": "address payable",
          "name": "author",
          "type": "address"
        }
      ],
      "stateMutability": "view",
      "type": "function"
    },
    {
      "inputs": [
        {
          "internalType": "address",
          "name": "",
          "type": "address"
        }
      ],
      "name": "profiles",
      "outputs": [
        {
          "internalType": "uint256",
          "name": "",
          "type": "uint256"
        }
      ],
      "stateMutability": "view",
      "type": "function"
    },
    {
      "inputs": [
        {
          "internalType": "address",
          "name": "from",
          "type": "address"
        },
        {
          "internalType": "address",
          "name": "to",
          "type": "address"
        },
        {
          "internalType": "uint256",
          "name": "tokenId",
          "type": "uint256"
        }
      ],
      "name": "safeTransferFrom",
      "outputs": [],
      "stateMutability": "nonpayable",
      "type": "function"
    },
    {
      "inputs": [
        {
          "internalType": "address",
          "name": "from",
          "type": "address"
        },
        {
          "internalType": "address",
          "name": "to",
          "type": "address"
        },
        {
          "internalType": "uint256",
          "name": "tokenId",
          "type": "uint256"
        },
        {
          "internalType": "bytes",
          "name": "_data",
          "type": "bytes"
        }
      ],
      "name": "safeTransferFrom",
      "outputs": [],
      "stateMutability": "nonpayable",
      "type": "function"
    },
    {
      "inputs": [
        {
          "internalType": "address",
          "name": "operator",
          "type": "address"
        },
        {
          "internalType": "bool",
          "name": "approved",
          "type": "bool"
        }
      ],
      "name": "setApprovalForAll",
      "outputs": [],
      "stateMutability": "nonpayable",
      "type": "function"
    },
    {
      "inputs": [
        {
          "internalType": "uint256",
          "name": "_id",
          "type": "uint256"
        }
      ],
      "name": "setProfile",
      "outputs": [],
      "stateMutability": "nonpayable",
      "type": "function"
    },
    {
      "inputs": [
        {
          "internalType": "bytes4",
          "name": "interfaceId",
          "type": "bytes4"
        }
      ],
      "name": "supportsInterface",
      "outputs": [
        {
          "internalType": "bool",
          "name": "",
          "type": "bool"
        }
      ],
      "stateMutability": "view",
      "type": "function"
    },
    {
      "inputs": [],
      "name": "symbol",
      "outputs": [
        {
          "internalType": "string",
          "name": "",
          "type": "string"
        }
      ],
      "stateMutability": "view",
      "type": "function"
    },
    {
      "inputs": [
        {
          "internalType": "uint256",
          "name": "_id",
          "type": "uint256"
        }
      ],
      "name": "tipPostOwner",
      "outputs": [],
      "stateMutability": "payable",
      "type": "function"
    },
    {
      "inputs": [],
      "name": "tokenCount",
      "outputs": [
        {
          "internalType": "uint256",
          "name": "",
          "type": "uint256"
        }
      ],
      "stateMutability": "view",
      "type": "function"
    },
    {
      "inputs": [
        {
          "internalType": "uint256",
          "name": "tokenId",
          "type": "uint256"
        }
      ],
      "name": "tokenURI",
      "outputs": [
        {
          "internalType": "string",
          "name": "",
          "type": "string"
        }
      ],
      "stateMutability": "view",
      "type": "function"
    },
    {
      "inputs": [
        {
          "internalType": "address",
          "name": "from",
          "type": "address"
        },
        {
          "internalType": "address",
          "name": "to",
          "type": "address"
        },
        {
          "internalType": "uint256",
          "name": "tokenId",
          "type": "uint256"
        }
      ],
      "name": "transferFrom",
      "outputs": [],
      "stateMutability": "nonpayable",
      "type": "function"
    },
    {
      "inputs": [
        {
          "internalType": "string",
          "name": "_postHash",
          "type": "string"
        }
      ],
      "name": "uploadPost",
      "outputs": [],
      "stateMutability": "nonpayable",
      "type": "function"
    }
  ],
  "bytecode": "0x60806040523480156200001157600080fd5b506040518060400160405280600f81526020017f446563656e7472617477697474657200000000000000000000000000000000008152506040518060400160405280600481526020017f4441505000000000000000000000000000000000000000000000000000000000815250816000908051906020019062000096929190620000b8565b508060019080519060200190620000af929190620000b8565b505050620001cd565b828054620000c69062000168565b90600052602060002090601f016020900481019282620000ea576000855562000136565b82601f106200010557805160ff191683800117855562000136565b8280016001018555821562000136579182015b828111156200013557825182559160200191906001019062000118565b5b50905062000145919062000149565b5090565b5b80821115620001645760008160009055506001016200014a565b5090565b600060028204905060018216806200018157607f821691505b602082108114156200019857620001976200019e565b5b50919050565b7f4e487b7100000000000000000000000000000000000000000000000000000000600052602260045260246000fd5b613ba580620001dd6000396000f3fe6080604052600436106101405760003560e01c806385d3cb37116100b6578063bdd05adb1161006f578063bdd05adb14610483578063c87b56dd146104ac578063d6313c06146104e9578063d85d3d2714610505578063da7d9d1014610542578063e985e9c51461056d57610140565b806385d3cb371461037557806395d89b411461039e5780639f181b5e146103c9578063a22cb465146103f4578063b88d4fde1461041d578063bbe156271461044657610140565b80630b1e7f83116101085780630b1e7f831461023e57806317906c2e1461027e57806323b872dd146102a957806342842e0e146102d25780636352211e146102fb57806370a082311461033857610140565b806301ffc9a714610145578063047b07bf1461018257806306fdde03146101ad578063081812fc146101d8578063095ea7b314610215575b600080fd5b34801561015157600080fd5b5061016c6004803603810190610167919061264f565b6105aa565b6040516101799190612d60565b60405180910390f35b34801561018e57600080fd5b5061019761068c565b6040516101a49190612d3e565b60405180910390f35b3480156101b957600080fd5b506101c2610691565b6040516101cf9190612d7b565b60405180910390f35b3480156101e457600080fd5b506101ff60048036038101906101fa91906126e2565b610723565b60405161020c9190612cb5565b60405180910390f35b34801561022157600080fd5b5061023c60048036038101906102379190612613565b6107a8565b005b34801561024a57600080fd5b50610265600480360381019061026091906126e2565b6108c0565b60405161027594939291906130a4565b60405180910390f35b34801561028a57600080fd5b50610293610998565b6040516102a0919061303d565b60405180910390f35b3480156102b557600080fd5b506102d060048036038101906102cb919061250d565b61099e565b005b3480156102de57600080fd5b506102f960048036038101906102f4919061250d565b6109fe565b005b34801561030757600080fd5b50610322600480360381019061031d91906126e2565b610a1e565b60405161032f9190612cb5565b60405180910390f35b34801561034457600080fd5b5061035f600480360381019061035a91906124a8565b610ad0565b60405161036c919061303d565b60405180910390f35b34801561038157600080fd5b5061039c600480360381019061039791906126e2565b610b88565b005b3480156103aa57600080fd5b506103b3610c45565b6040516103c09190612d7b565b60405180910390f35b3480156103d557600080fd5b506103de610cd7565b6040516103eb919061303d565b60405180910390f35b34801561040057600080fd5b5061041b600480360381019061041691906125d7565b610cdd565b005b34801561042957600080fd5b50610444600480360381019061043f919061255c565b610cf3565b005b34801561045257600080fd5b5061046d600480360381019061046891906124a8565b610d55565b60405161047a919061303d565b60405180910390f35b34801561048f57600080fd5b506104aa60048036038101906104a591906126a1565b610d6d565b005b3480156104b857600080fd5b506104d360048036038101906104ce91906126e2565b610f21565b6040516104e09190612d7b565b60405180910390f35b61050360048036038101906104fe91906126e2565b611073565b005b34801561051157600080fd5b5061052c600480360381019061052791906126a1565b611395565b604051610539919061303d565b60405180910390f35b34801561054e57600080fd5b506105576113dc565b6040516105649190612d1c565b60405180910390f35b34801561057957600080fd5b50610594600480360381019061058f91906124d1565b61145f565b6040516105a19190612d60565b60405180910390f35b60007f80ac58cd000000000000000000000000000000000000000000000000000000007bffffffffffffffffffffffffffffffffffffffffffffffffffffffff1916827bffffffffffffffffffffffffffffffffffffffffffffffffffffffff1916148061067557507f5b5e139f000000000000000000000000000000000000000000000000000000007bffffffffffffffffffffffffffffffffffffffffffffffffffffffff1916827bffffffffffffffffffffffffffffffffffffffffffffffffffffffff1916145b806106855750610684826114f3565b5b9050919050565b606090565b6060600080546106a0906133d2565b80601f01602080910402602001604051908101604052809291908181526020018280546106cc906133d2565b80156107195780601f106106ee57610100808354040283529160200191610719565b820191906000526020600020905b8154815290600101906020018083116106fc57829003601f168201915b5050505050905090565b600061072e8261155d565b61076d576040517f08c379a000000000000000000000000000000000000000000000000000000000815260040161076490612f3d565b60405180910390fd5b6004600083815260200190815260200160002060009054906101000a900473ffffffffffffffffffffffffffffffffffffffff169050919050565b60006107b382610a1e565b90508073ffffffffffffffffffffffffffffffffffffffff168373ffffffffffffffffffffffffffffffffffffffff161415610824576040517f08c379a000000000000000000000000000000000000000000000000000000000815260040161081b90612f9d565b60405180910390fd5b8073ffffffffffffffffffffffffffffffffffffffff166108436115c9565b73ffffffffffffffffffffffffffffffffffffffff16148061087257506108718161086c6115c9565b61145f565b5b6108b1576040517f08c379a00000000000000000000000000000000000000000000000000000000081526004016108a890612e5d565b60405180910390fd5b6108bb83836115d1565b505050565b60096020528060005260406000206000915090508060000154908060010180546108e9906133d2565b80601f0160208091040260200160405190810160405280929190818152602001828054610915906133d2565b80156109625780601f1061093757610100808354040283529160200191610962565b820191906000526020600020905b81548152906001019060200180831161094557829003601f168201915b5050505050908060020154908060030160009054906101000a900473ffffffffffffffffffffffffffffffffffffffff16905084565b60085481565b6109af6109a96115c9565b8261168a565b6109ee576040517f08c379a00000000000000000000000000000000000000000000000000000000081526004016109e59061301d565b60405180910390fd5b6109f9838383611768565b505050565b610a1983838360405180602001604052806000815250610cf3565b505050565b6000806002600084815260200190815260200160002060009054906101000a900473ffffffffffffffffffffffffffffffffffffffff169050600073ffffffffffffffffffffffffffffffffffffffff168173ffffffffffffffffffffffffffffffffffffffff161415610ac7576040517f08c379a0000000000000000000000000000000000000000000000000000000008152600401610abe90612e9d565b60405180910390fd5b80915050919050565b60008073ffffffffffffffffffffffffffffffffffffffff168273ffffffffffffffffffffffffffffffffffffffff161415610b41576040517f08c379a0000000000000000000000000000000000000000000000000000000008152600401610b3890612e7d565b60405180910390fd5b600360008373ffffffffffffffffffffffffffffffffffffffff1673ffffffffffffffffffffffffffffffffffffffff168152602001908152602001600020549050919050565b3373ffffffffffffffffffffffffffffffffffffffff16610ba882610a1e565b73ffffffffffffffffffffffffffffffffffffffff1614610bfe576040517f08c379a0000000000000000000000000000000000000000000000000000000008152600401610bf590612fbd565b60405180910390fd5b80600a60003373ffffffffffffffffffffffffffffffffffffffff1673ffffffffffffffffffffffffffffffffffffffff1681526020019081526020016000208190555050565b606060018054610c54906133d2565b80601f0160208091040260200160405190810160405280929190818152602001828054610c80906133d2565b8015610ccd5780601f10610ca257610100808354040283529160200191610ccd565b820191906000526020600020905b815481529060010190602001808311610cb057829003601f168201915b5050505050905090565b60075481565b610cef610ce86115c9565b83836119cf565b5050565b610d04610cfe6115c9565b8361168a565b610d43576040517f08c379a0000000000000000000000000000000000000000000000000000000008152600401610d3a9061301d565b60405180910390fd5b610d4f84848484611b3c565b50505050565b600a6020528060005260406000206000915090505481565b6000610d7833610ad0565b11610db8576040517f08c379a0000000000000000000000000000000000000000000000000000000008152600401610daf90612ffd565b60405180910390fd5b6000815111610dfc576040517f08c379a0000000000000000000000000000000000000000000000000000000008152600401610df390612f5d565b60405180910390fd5b60086000815480929190610e0f90613435565b919050555060405180608001604052806008548152602001828152602001600081526020013373ffffffffffffffffffffffffffffffffffffffff16815250600960006008548152602001908152602001600020600082015181600001556020820151816001019080519060200190610e8992919061228e565b506040820151816002015560608201518160030160006101000a81548173ffffffffffffffffffffffffffffffffffffffff021916908373ffffffffffffffffffffffffffffffffffffffff1602179055509050507fc66336337a24e513f909b3b25119854dba8385d51307dbc7d31d1b2805e19c7e60085482600033604051610f169493929190613058565b60405180910390a150565b6060610f2c8261155d565b610f6b576040517f08c379a0000000000000000000000000000000000000000000000000000000008152600401610f6290612f1d565b60405180910390fd5b6000600660008481526020019081526020016000208054610f8b906133d2565b80601f0160208091040260200160405190810160405280929190818152602001828054610fb7906133d2565b80156110045780601f10610fd957610100808354040283529160200191611004565b820191906000526020600020905b815481529060010190602001808311610fe757829003601f168201915b505050505090506000611015611b98565b905060008151141561102b57819250505061106e565b600082511115611060578082604051602001611048929190612c91565b6040516020818303038152906040529250505061106e565b61106984611baf565b925050505b919050565b60008111801561108557506008548111155b6110c4576040517f08c379a00000000000000000000000000000000000000000000000000000000081526004016110bb90612edd565b60405180910390fd5b600060096000838152602001908152602001600020604051806080016040529081600082015481526020016001820180546110fe906133d2565b80601f016020809104026020016040519081016040528092919081815260200182805461112a906133d2565b80156111775780601f1061114c57610100808354040283529160200191611177565b820191906000526020600020905b81548152906001019060200180831161115a57829003601f168201915b50505050508152602001600282015481526020016003820160009054906101000a900473ffffffffffffffffffffffffffffffffffffffff1673ffffffffffffffffffffffffffffffffffffffff1673ffffffffffffffffffffffffffffffffffffffff168152505090503373ffffffffffffffffffffffffffffffffffffffff16816060015173ffffffffffffffffffffffffffffffffffffffff161415611255576040517f08c379a000000000000000000000000000000000000000000000000000000000815260040161124c90612fdd565b60405180910390fd5b806060015173ffffffffffffffffffffffffffffffffffffffff166108fc349081150290604051600060405180830381858888f1935050505015801561129f573d6000803e3d6000fd5b5034816040018181516112b2919061323d565b9150818152505080600960008481526020019081526020016000206000820151816000015560208201518160010190805190602001906112f392919061228e565b506040820151816002015560608201518160030160006101000a81548173ffffffffffffffffffffffffffffffffffffffff021916908373ffffffffffffffffffffffffffffffffffffffff1602179055509050507f20988fe475351e75813672abada1dddb7ac67cbbeb81e61e1160b8329d8cdf1c8282602001518360400151846060015160405161138994939291906130a4565b60405180910390a15050565b6000600760008154809291906113aa90613435565b91905055506113bb33600754611c56565b6113c760075483611c74565b6113d2600754610b88565b6007549050919050565b606060085467ffffffffffffffff811115611420577f4e487b7100000000000000000000000000000000000000000000000000000000600052604160045260246000fd5b60405190808252806020026020018201604052801561145957816020015b611446612314565b81526020019060019003908161143e5790505b50905090565b6000600560008473ffffffffffffffffffffffffffffffffffffffff1673ffffffffffffffffffffffffffffffffffffffff16815260200190815260200160002060008373ffffffffffffffffffffffffffffffffffffffff1673ffffffffffffffffffffffffffffffffffffffff16815260200190815260200160002060009054906101000a900460ff16905092915050565b60007f01ffc9a7000000000000000000000000000000000000000000000000000000007bffffffffffffffffffffffffffffffffffffffffffffffffffffffff1916827bffffffffffffffffffffffffffffffffffffffffffffffffffffffff1916149050919050565b60008073ffffffffffffffffffffffffffffffffffffffff166002600084815260200190815260200160002060009054906101000a900473ffffffffffffffffffffffffffffffffffffffff1673ffffffffffffffffffffffffffffffffffffffff1614159050919050565b600033905090565b816004600083815260200190815260200160002060006101000a81548173ffffffffffffffffffffffffffffffffffffffff021916908373ffffffffffffffffffffffffffffffffffffffff160217905550808273ffffffffffffffffffffffffffffffffffffffff1661164483610a1e565b73ffffffffffffffffffffffffffffffffffffffff167f8c5be1e5ebec7d5bd14f71427d1e84f3dd0314c0f7b2291e5b200ac8c7c3b92560405160405180910390a45050565b60006116958261155d565b6116d4576040517f08c379a00000000000000000000000000000000000000000000000000000000081526004016116cb90612e3d565b60405180910390fd5b60006116df83610a1e565b90508073ffffffffffffffffffffffffffffffffffffffff168473ffffffffffffffffffffffffffffffffffffffff16148061174e57508373ffffffffffffffffffffffffffffffffffffffff1661173684610723565b73ffffffffffffffffffffffffffffffffffffffff16145b8061175f575061175e818561145f565b5b91505092915050565b8273ffffffffffffffffffffffffffffffffffffffff1661178882610a1e565b73ffffffffffffffffffffffffffffffffffffffff16146117de576040517f08c379a00000000000000000000000000000000000000000000000000000000081526004016117d590612dbd565b60405180910390fd5b600073ffffffffffffffffffffffffffffffffffffffff168273ffffffffffffffffffffffffffffffffffffffff16141561184e576040517f08c379a000000000000000000000000000000000000000000000000000000000815260040161184590612dfd565b60405180910390fd5b611859838383611ce8565b6118646000826115d1565b6001600360008573ffffffffffffffffffffffffffffffffffffffff1673ffffffffffffffffffffffffffffffffffffffff16815260200190815260200160002060008282546118b491906132c4565b925050819055506001600360008473ffffffffffffffffffffffffffffffffffffffff1673ffffffffffffffffffffffffffffffffffffffff168152602001908152602001600020600082825461190b919061323d565b92505081905550816002600083815260200190815260200160002060006101000a81548173ffffffffffffffffffffffffffffffffffffffff021916908373ffffffffffffffffffffffffffffffffffffffff160217905550808273ffffffffffffffffffffffffffffffffffffffff168473ffffffffffffffffffffffffffffffffffffffff167fddf252ad1be2c89b69c2b068fc378daa952ba7f163c4a11628f55a4df523b3ef60405160405180910390a46119ca838383611ced565b505050565b8173ffffffffffffffffffffffffffffffffffffffff168373ffffffffffffffffffffffffffffffffffffffff161415611a3e576040517f08c379a0000000000000000000000000000000000000000000000000000000008152600401611a3590612e1d565b60405180910390fd5b80600560008573ffffffffffffffffffffffffffffffffffffffff1673ffffffffffffffffffffffffffffffffffffffff16815260200190815260200160002060008473ffffffffffffffffffffffffffffffffffffffff1673ffffffffffffffffffffffffffffffffffffffff16815260200190815260200160002060006101000a81548160ff0219169083151502179055508173ffffffffffffffffffffffffffffffffffffffff168373ffffffffffffffffffffffffffffffffffffffff167f17307eab39ab6107e8899845ad3d59bd9653f200f220920489ca2b5937696c3183604051611b2f9190612d60565b60405180910390a3505050565b611b47848484611768565b611b5384848484611cf2565b611b92576040517f08c379a0000000000000000000000000000000000000000000000000000000008152600401611b8990612d9d565b60405180910390fd5b50505050565b606060405180602001604052806000815250905090565b6060611bba8261155d565b611bf9576040517f08c379a0000000000000000000000000000000000000000000000000000000008152600401611bf090612f7d565b60405180910390fd5b6000611c03611b98565b90506000815111611c235760405180602001604052806000815250611c4e565b80611c2d84611e89565b604051602001611c3e929190612c91565b6040516020818303038152906040525b915050919050565b611c70828260405180602001604052806000815250612036565b5050565b611c7d8261155d565b611cbc576040517f08c379a0000000000000000000000000000000000000000000000000000000008152600401611cb390612ebd565b60405180910390fd5b80600660008481526020019081526020016000209080519060200190611ce392919061228e565b505050565b505050565b505050565b6000611d138473ffffffffffffffffffffffffffffffffffffffff16612091565b15611e7c578373ffffffffffffffffffffffffffffffffffffffff1663150b7a02611d3c6115c9565b8786866040518563ffffffff1660e01b8152600401611d5e9493929190612cd0565b602060405180830381600087803b158015611d7857600080fd5b505af1925050508015611da957506040513d601f19601f82011682018060405250810190611da69190612678565b60015b611e2c573d8060008114611dd9576040519150601f19603f3d011682016040523d82523d6000602084013e611dde565b606091505b50600081511415611e24576040517f08c379a0000000000000000000000000000000000000000000000000000000008152600401611e1b90612d9d565b60405180910390fd5b805181602001fd5b63150b7a0260e01b7bffffffffffffffffffffffffffffffffffffffffffffffffffffffff1916817bffffffffffffffffffffffffffffffffffffffffffffffffffffffff191614915050611e81565b600190505b949350505050565b60606000821415611ed1576040518060400160405280600181526020017f30000000000000000000000000000000000000000000000000000000000000008152509050612031565b600082905060005b60008214611f03578080611eec90613435565b915050600a82611efc9190613293565b9150611ed9565b60008167ffffffffffffffff811115611f45577f4e487b7100000000000000000000000000000000000000000000000000000000600052604160045260246000fd5b6040519080825280601f01601f191660200182016040528015611f775781602001600182028036833780820191505090505b5090505b6000851461202a57600182611f9091906132c4565b9150600a85611f9f919061347e565b6030611fab919061323d565b60f81b818381518110611fe7577f4e487b7100000000000000000000000000000000000000000000000000000000600052603260045260246000fd5b60200101907effffffffffffffffffffffffffffffffffffffffffffffffffffffffffffff1916908160001a905350600a856120239190613293565b9450611f7b565b8093505050505b919050565b61204083836120b4565b61204d6000848484611cf2565b61208c576040517f08c379a000000000000000000000000000000000000000000000000000000000815260040161208390612d9d565b60405180910390fd5b505050565b6000808273ffffffffffffffffffffffffffffffffffffffff163b119050919050565b600073ffffffffffffffffffffffffffffffffffffffff168273ffffffffffffffffffffffffffffffffffffffff161415612124576040517f08c379a000000000000000000000000000000000000000000000000000000000815260040161211b90612efd565b60405180910390fd5b61212d8161155d565b1561216d576040517f08c379a000000000000000000000000000000000000000000000000000000000815260040161216490612ddd565b60405180910390fd5b61217960008383611ce8565b6001600360008473ffffffffffffffffffffffffffffffffffffffff1673ffffffffffffffffffffffffffffffffffffffff16815260200190815260200160002060008282546121c9919061323d565b92505081905550816002600083815260200190815260200160002060006101000a81548173ffffffffffffffffffffffffffffffffffffffff021916908373ffffffffffffffffffffffffffffffffffffffff160217905550808273ffffffffffffffffffffffffffffffffffffffff16600073ffffffffffffffffffffffffffffffffffffffff167fddf252ad1be2c89b69c2b068fc378daa952ba7f163c4a11628f55a4df523b3ef60405160405180910390a461228a60008383611ced565b5050565b82805461229a906133d2565b90600052602060002090601f0160209004810192826122bc5760008555612303565b82601f106122d557805160ff1916838001178555612303565b82800160010185558215612303579182015b828111156123025782518255916020019190600101906122e7565b5b5090506123109190612352565b5090565b6040518060800160405280600081526020016060815260200160008152602001600073ffffffffffffffffffffffffffffffffffffffff1681525090565b5b8082111561236b576000816000905550600101612353565b5090565b600061238261237d84613115565b6130f0565b90508281526020810184848401111561239a57600080fd5b6123a5848285613390565b509392505050565b60006123c06123bb84613146565b6130f0565b9050828152602081018484840111156123d857600080fd5b6123e3848285613390565b509392505050565b6000813590506123fa81613b13565b92915050565b60008135905061240f81613b2a565b92915050565b60008135905061242481613b41565b92915050565b60008151905061243981613b41565b92915050565b600082601f83011261245057600080fd5b813561246084826020860161236f565b91505092915050565b600082601f83011261247a57600080fd5b813561248a8482602086016123ad565b91505092915050565b6000813590506124a281613b58565b92915050565b6000602082840312156124ba57600080fd5b60006124c8848285016123eb565b91505092915050565b600080604083850312156124e457600080fd5b60006124f2858286016123eb565b9250506020612503858286016123eb565b9150509250929050565b60008060006060848603121561252257600080fd5b6000612530868287016123eb565b9350506020612541868287016123eb565b925050604061255286828701612493565b9150509250925092565b6000806000806080858703121561257257600080fd5b6000612580878288016123eb565b9450506020612591878288016123eb565b93505060406125a287828801612493565b925050606085013567ffffffffffffffff8111156125bf57600080fd5b6125cb8782880161243f565b91505092959194509250565b600080604083850312156125ea57600080fd5b60006125f8858286016123eb565b925050602061260985828601612400565b9150509250929050565b6000806040838503121561262657600080fd5b6000612634858286016123eb565b925050602061264585828601612493565b9150509250929050565b60006020828403121561266157600080fd5b600061266f84828501612415565b91505092915050565b60006020828403121561268a57600080fd5b60006126988482850161242a565b91505092915050565b6000602082840312156126b357600080fd5b600082013567ffffffffffffffff8111156126cd57600080fd5b6126d984828501612469565b91505092915050565b6000602082840312156126f457600080fd5b600061270284828501612493565b91505092915050565b60006127178383612c10565b905092915050565b600061272b8383612c73565b60208301905092915050565b6127408161330a565b82525050565b61274f8161330a565b82525050565b61275e816132f8565b82525050565b600061276f82613197565b61277981856131dd565b93508360208202850161278b85613177565b8060005b858110156127c757848403895281516127a8858261270b565b94506127b3836131c3565b925060208a0199505060018101905061278f565b50829750879550505050505092915050565b60006127e4826131a2565b6127ee81856131ee565b93506127f983613187565b8060005b8381101561282a578151612811888261271f565b975061281c836131d0565b9250506001810190506127fd565b5085935050505092915050565b6128408161331c565b82525050565b6000612851826131ad565b61285b81856131ff565b935061286b81856020860161339f565b6128748161356b565b840191505092915050565b6128888161337e565b82525050565b6000612899826131b8565b6128a38185613210565b93506128b381856020860161339f565b6128bc8161356b565b840191505092915050565b60006128d2826131b8565b6128dc8185613221565b93506128ec81856020860161339f565b6128f58161356b565b840191505092915050565b600061290b826131b8565b6129158185613232565b935061292581856020860161339f565b80840191505092915050565b600061293e603283613221565b91506129498261357c565b604082019050919050565b6000612961602583613221565b915061296c826135cb565b604082019050919050565b6000612984601c83613221565b915061298f8261361a565b602082019050919050565b60006129a7602483613221565b91506129b282613643565b604082019050919050565b60006129ca601983613221565b91506129d582613692565b602082019050919050565b60006129ed602c83613221565b91506129f8826136bb565b604082019050919050565b6000612a10603883613221565b9150612a1b8261370a565b604082019050919050565b6000612a33602a83613221565b9150612a3e82613759565b604082019050919050565b6000612a56602983613221565b9150612a61826137a8565b604082019050919050565b6000612a79602e83613221565b9150612a84826137f7565b604082019050919050565b6000612a9c600f83613221565b9150612aa782613846565b602082019050919050565b6000612abf602083613221565b9150612aca8261386f565b602082019050919050565b6000612ae2603183613221565b9150612aed82613898565b604082019050919050565b6000612b05602c83613221565b9150612b10826138e7565b604082019050919050565b6000612b28601983613221565b9150612b3382613936565b602082019050919050565b6000612b4b602f83613221565b9150612b568261395f565b604082019050919050565b6000612b6e602183613221565b9150612b79826139ae565b604082019050919050565b6000612b91603383613221565b9150612b9c826139fd565b604082019050919050565b6000612bb4601883613221565b9150612bbf82613a4c565b602082019050919050565b6000612bd7602683613221565b9150612be282613a75565b604082019050919050565b6000612bfa603183613221565b9150612c0582613ac4565b604082019050919050565b6000608083016000830151612c286000860182612c73565b5060208301518482036020860152612c40828261288e565b9150506040830151612c556040860182612c73565b506060830151612c686060860182612737565b508091505092915050565b612c7c81613374565b82525050565b612c8b81613374565b82525050565b6000612c9d8285612900565b9150612ca98284612900565b91508190509392505050565b6000602082019050612cca6000830184612755565b92915050565b6000608082019050612ce56000830187612755565b612cf26020830186612755565b612cff6040830185612c82565b8181036060830152612d118184612846565b905095945050505050565b60006020820190508181036000830152612d368184612764565b905092915050565b60006020820190508181036000830152612d5881846127d9565b905092915050565b6000602082019050612d756000830184612837565b92915050565b60006020820190508181036000830152612d9581846128c7565b905092915050565b60006020820190508181036000830152612db681612931565b9050919050565b60006020820190508181036000830152612dd681612954565b9050919050565b60006020820190508181036000830152612df681612977565b9050919050565b60006020820190508181036000830152612e168161299a565b9050919050565b60006020820190508181036000830152612e36816129bd565b9050919050565b60006020820190508181036000830152612e56816129e0565b9050919050565b60006020820190508181036000830152612e7681612a03565b9050919050565b60006020820190508181036000830152612e9681612a26565b9050919050565b60006020820190508181036000830152612eb681612a49565b9050919050565b60006020820190508181036000830152612ed681612a6c565b9050919050565b60006020820190508181036000830152612ef681612a8f565b9050919050565b60006020820190508181036000830152612f1681612ab2565b9050919050565b60006020820190508181036000830152612f3681612ad5565b9050919050565b60006020820190508181036000830152612f5681612af8565b9050919050565b60006020820190508181036000830152612f7681612b1b565b9050919050565b60006020820190508181036000830152612f9681612b3e565b9050919050565b60006020820190508181036000830152612fb681612b61565b9050919050565b60006020820190508181036000830152612fd681612b84565b9050919050565b60006020820190508181036000830152612ff681612ba7565b9050919050565b6000602082019050818103600083015261301681612bca565b9050919050565b6000602082019050818103600083015261303681612bed565b9050919050565b60006020820190506130526000830184612c82565b92915050565b600060808201905061306d6000830187612c82565b818103602083015261307f81866128c7565b905061308e604083018561287f565b61309b6060830184612746565b95945050505050565b60006080820190506130b96000830187612c82565b81810360208301526130cb81866128c7565b90506130da6040830185612c82565b6130e76060830184612746565b95945050505050565b60006130fa61310b565b90506131068282613404565b919050565b6000604051905090565b600067ffffffffffffffff8211156131305761312f61353c565b5b6131398261356b565b9050602081019050919050565b600067ffffffffffffffff8211156131615761316061353c565b5b61316a8261356b565b9050602081019050919050565b6000819050602082019050919050565b6000819050602082019050919050565b600081519050919050565b600081519050919050565b600081519050919050565b600081519050919050565b6000602082019050919050565b6000602082019050919050565b600082825260208201905092915050565b600082825260208201905092915050565b600082825260208201905092915050565b600082825260208201905092915050565b600082825260208201905092915050565b600081905092915050565b600061324882613374565b915061325383613374565b9250827fffffffffffffffffffffffffffffffffffffffffffffffffffffffffffffffff03821115613288576132876134af565b5b828201905092915050565b600061329e82613374565b91506132a983613374565b9250826132b9576132b86134de565b5b828204905092915050565b60006132cf82613374565b91506132da83613374565b9250828210156132ed576132ec6134af565b5b828203905092915050565b600061330382613354565b9050919050565b600061331582613354565b9050919050565b60008115159050919050565b60007fffffffff0000000000000000000000000000000000000000000000000000000082169050919050565b600073ffffffffffffffffffffffffffffffffffffffff82169050919050565b6000819050919050565b600061338982613374565b9050919050565b82818337600083830152505050565b60005b838110156133bd5780820151818401526020810190506133a2565b838111156133cc576000848401525b50505050565b600060028204905060018216806133ea57607f821691505b602082108114156133fe576133fd61350d565b5b50919050565b61340d8261356b565b810181811067ffffffffffffffff8211171561342c5761342b61353c565b5b80604052505050565b600061344082613374565b91507fffffffffffffffffffffffffffffffffffffffffffffffffffffffffffffffff821415613473576134726134af565b5b600182019050919050565b600061348982613374565b915061349483613374565b9250826134a4576134a36134de565b5b828206905092915050565b7f4e487b7100000000000000000000000000000000000000000000000000000000600052601160045260246000fd5b7f4e487b7100000000000000000000000000000000000000000000000000000000600052601260045260246000fd5b7f4e487b7100000000000000000000000000000000000000000000000000000000600052602260045260246000fd5b7f4e487b7100000000000000000000000000000000000000000000000000000000600052604160045260246000fd5b6000601f19601f8301169050919050565b7f4552433732313a207472616e7366657220746f206e6f6e20455243373231526560008201527f63656976657220696d706c656d656e7465720000000000000000000000000000602082015250565b7f4552433732313a207472616e736665722066726f6d20696e636f72726563742060008201527f6f776e6572000000000000000000000000000000000000000000000000000000602082015250565b7f4552433732313a20746f6b656e20616c7265616479206d696e74656400000000600082015250565b7f4552433732313a207472616e7366657220746f20746865207a65726f2061646460008201527f7265737300000000000000000000000000000000000000000000000000000000602082015250565b7f4552433732313a20617070726f766520746f2063616c6c657200000000000000600082015250565b7f4552433732313a206f70657261746f7220717565727920666f72206e6f6e657860008201527f697374656e7420746f6b656e0000000000000000000000000000000000000000602082015250565b7f4552433732313a20617070726f76652063616c6c6572206973206e6f74206f7760008201527f6e6572206e6f7220617070726f76656420666f7220616c6c0000000000000000602082015250565b7f4552433732313a2062616c616e636520717565727920666f7220746865207a6560008201527f726f206164647265737300000000000000000000000000000000000000000000602082015250565b7f4552433732313a206f776e657220717565727920666f72206e6f6e657869737460008201527f656e7420746f6b656e0000000000000000000000000000000000000000000000602082015250565b7f45524337323155524953746f726167653a2055524920736574206f66206e6f6e60008201527f6578697374656e7420746f6b656e000000000000000000000000000000000000602082015250565b7f496e76616c696420706f73742069640000000000000000000000000000000000600082015250565b7f4552433732313a206d696e7420746f20746865207a65726f2061646472657373600082015250565b7f45524337323155524953746f726167653a2055524920717565727920666f722060008201527f6e6f6e6578697374656e7420746f6b656e000000000000000000000000000000602082015250565b7f4552433732313a20617070726f76656420717565727920666f72206e6f6e657860008201527f697374656e7420746f6b656e0000000000000000000000000000000000000000602082015250565b7f43616e6e6f74207061737320616e20656d707479206861736800000000000000600082015250565b7f4552433732314d657461646174613a2055524920717565727920666f72206e6f60008201527f6e6578697374656e7420746f6b656e0000000000000000000000000000000000602082015250565b7f4552433732313a20617070726f76616c20746f2063757272656e74206f776e6560008201527f7200000000000000000000000000000000000000000000000000000000000000602082015250565b7f4d757374206f776e20746865206e667420796f752077616e7420746f2073656c60008201527f65637420617320796f75722070726f66696c6500000000000000000000000000602082015250565b7f43616e6e6f742074697020796f7572206f776e20706f73740000000000000000600082015250565b7f4d757374206f776e206120646563656e74726174776974746572206e6674207460008201527f6f20706f73740000000000000000000000000000000000000000000000000000602082015250565b7f4552433732313a207472616e736665722063616c6c6572206973206e6f74206f60008201527f776e6572206e6f7220617070726f766564000000000000000000000000000000602082015250565b613b1c816132f8565b8114613b2757600080fd5b50565b613b338161331c565b8114613b3e57600080fd5b50565b613b4a81613328565b8114613b5557600080fd5b50565b613b6181613374565b8114613b6c57600080fd5b5056fea2646970667358221220fffdb0d15c8f31fee3298f18e22b67261d0deab79ffe1ab7391445760a67f66c64736f6c63430008040033",
  "linkReferences": {},
  "deployedLinkReferences": {}
}